:020000040800F2
:10000000E811002049010008E50E0008950E0008DF
:1000100000000000000000000000000000000000E0
:100020000000000000000000000000002D0F00088C
:10003000000000000000000007010008370F000862
:100040005B0100085B0100085B0100085B01000820
:100050005B0100085B0100085B0100085B01000810
:100060005B0100085B0100085B0100085B01000800
:100070005B0100085B0100085B0100085B010008F0
:100080005B0100085B0100085B0100085B010008E0
:100090005B0100085B0100085B0100085B010008D0
:1000A0005B0100085B0100085B0100085B010008C0
:1000B0005B0100085B0100085B01000803488546FE
:1000C00000F0DCF80048004721180008E811002083
:1000D000084B19680868203080F30988022080F3F3
:1000E0001488BFF36F8F3FBCAE4608BC04BC62B639
:1000F0001847000014000020EFF3108072B670471C
:1001000080F310887047EFF309800E4B1A6820388F
:100110001060F0C044464D4656465F46F0C008B5F4
:1001200072B601F065FE62B60CBC1168086810304A
:10013000F0C8A046A946B246BB4680F309882038DD
:10014000F0C81847140000200448804704480047BE
:10015000FEE7FEE7FEE7FEE7FEE7FEE7A10F000889
:10016000BD00000830B50B460146002020220124C6
:1001700009E00D46D5409D4205D31D469540491BDB
:100180002546954040191546521E002DF1DC30BD24
:10019000F0B51FB40646002082B005464024019108
:1001A00000901BE0019922460F46304600F054F8BB
:1001B000049A059B801A994110D31046194622468D
:1001C00000F03AF8361A8F410197224601200021AB
:1001D000009F00F031F838184D4100902046641E11
:1001E0000028DFDC019B00982946324607B0F0BDAD
:1001F00003460B439B0703D009E008C9121F08C040
:10020000042AFAD203E00B780370401C491C521EEA
:10021000F9D27047D2B201E00270401C491EFBD2F5
:1002200070470022F6E710B513460A460446194601
:10023000FFF7F0FF204610BD10B5202A04DB014671
:10024000203A9140002010BD914020239C1A034683
:10025000E3401943904010BD10B5202A04DB084646
:10026000203AD040002110BD0B46D340D04020247E
:10027000A21A91400843194610BD0000064C012502
:10028000064E05E0E36807CC2B430C3C984710343E
:10029000B442F7D3FFF716FF1421000834210008F9
:1002A000F0B5002388E001229A40944614402200D1
:1002B0007ED04C68022C01D0122C0CD1DC08A4009A
:1002C00027183C6A5D07ED0E0F26AE40B4430E6959
:1002D000AE4026433E6205685E000324B4400F79B9
:1002E000A543BF07BF0FB7402F4307604D68012DDF
:1002F00005D0022D03D0112D01D0122D0ED185680D
:10030000CF68A543B7402F43876047686546AF4332
:100310000D79ED06ED0F9D403D434560C568A54351
:100320008C68B4402C43C4604C68E40043D59D08FD
:10033000244CAD002F193C6E9D07EE0E0F25B540E5
:10034000AC4305252D07A84201D100250FE01E4D25
:10035000A84201D101250AE01C4DA84201D1022585
:1003600005E01B4DA84201D1032500E00525B5405D
:100370002543144C3D66134D80352E684F689643D7
:10038000FF0300D516432E606E684F689643BF0387
:1003900000D516436E6025684E689543F60200D579
:1003A0001543256065684E689543B60202D500E0A6
:1003B00001E0154365605B1C0A681446DA4000D012
:1003C00071E7F0BD00180240000400500008005022
:1003D000000C0050014880687047000004000020B5
:1003E00002488168426889188160704704000020D3
:1003F00010B50848002401688215114301600320EC
:1004000000F00AF8002801D0012401E000F028F8EB
:10041000204610BD0020024070B50F4E00247168C8
:100420000546002915D07D20C000FFF79BFE014640
:100430000A480068FFF796FE00F03CFC002808D14F
:10044000042D06D200222946401E00F023F8356014
:1004500000E00124204670BD0400002010000020B0
:1004600008B50B4801680122114301600068104083
:10047000009007484038C26B01040A43C263C06B56
:100480000022084003210090481F00F003F808BD37
:100490004010024010B500F027FD10BD10B50F4C04
:1004A000216803225202914301432160C11FFF3999
:1004B000FA390ED10A480621006848430949FFF776
:1004C00051FE401C02E0002805D0401E616949052C
:1004D000F9D4002010BD032010BD000000700040C2
:1004E0001000002040420F00FEB5044600680027BF
:1004F000704D714E800355D500200090F06BC00008
:1005000007D4F16BA8050143F163F16B01400120B1
:1005100000906A480168821511430160FFF75AFF95
:10052000019005E0FFF756FF0199401A022825D8EF
:1005300062480068C005F5D5E86903210902084052
:100540000FD0216B81420CD0E86903210902EA69CE
:100550008843012109040A43EA61EA698A43EA619E
:10056000E861C0070FD0FFF735FF019008E0FFF703
:1005700031FF0199411A5248814201D9032709E00C
:10058000E8698007F3D5E869032109028843216BF4
:100590000843E8610098002804D0F16B01200007AF
:1005A0008143F1632078C00705D0686961688008DD
:1005B0008000084368612078800705D568690C21B0
:1005C0008843A168084368612078800606D5686979
:1005D000032189028843E168084368612088800517
:1005E00006D56869032189048843A16908436861C5
:1005F0002088400506D56869032109058843E1691B
:10060000084368612078400606D56869032109031C
:100610008843216908436861208840040ED56869D1
:10062000216A80008008084368610121206A8907E7
:10063000884203D1F06889130843F0602068000302
:1006400005D5686940218843616A0843686120686C
:1006500081021C480BD569698210A36A9143194332
:100660006961A16A914202D1F1680143F160216898
:1006700049020AD56969E26A814311436961E16A05
:10068000814202D1F1680143F160208800050FD555
:10069000686903218903884361690843686101210E
:1006A00060698903884203D1F06889000843F060DB
:1006B0003846FEBD4010024000100240007000406D
:1006C0008813000000000001F8B50F46060043D073
:1006D0004C4D28684007400FB84213D22868C00824
:1006E000C00038432860FFF775FE044605E0FFF7B9
:1006F00071FE011B4448814261D828684007400FC1
:10070000B842F4D13068414C81070DD5400704D57B
:10071000A068072109030843A060A0680F2109020F
:100720008843B1680843A0603078C00732D0706851
:1007300001280AD002280BD000280FD033494031BD
:1007400003280ED0C969890704E02168890301E004
:1007500021688901002906DB0120F8BD21684905CF
:10076000F8E7096AEFE7A168C908C9000143A16079
:10077000FFF730FE009006E0FFF72CFE0099411ACB
:10078000214881421BD8A068382108407168C900FF
:100790008842F1D128684007400FB84217D919485C
:1007A0000168C908C90039430160FFF713FE054617
:1007B00007E0FFF70FFE411B1348814201D90320D8
:1007C000F8BD104800684007400FB842F1D13078BA
:1007D000400706D5A068072109038843F16808434C
:1007E000A06000F02DF8A1683C2289091140084A58
:1007F000515CC906C90EC840064908600320FFF7CE
:100800000BFEF8BD002002408813000000100240DB
:10081000A8200008100000200648074900688968E1
:100820001C22890A1140054A515CC906C90EC840FC
:10083000704700001000002000100240E82000086F
:1008400010B5204CA068204A8006400F16D0A06842
:100850008006410F501001290FD0A1688906490F69
:10086000022912D0A0688006400F042823D0A06877
:100870008006400F032821D0002010BD20680121F0
:100880008004400F8140104612E0E1688B07E16868
:100890009B0F4906490F491C032B00D01046FFF758
:1008A00061FCE1684904490E4843E168490F491C6D
:1008B000FFF758FC10BD0120C00310BD7D200002D1
:1008C00010BD0000001002400024F400F8B5040040
:1008D0007ED020783827C007EE4D002846D0A86883
:1008E000E96838408907890F102802D008280BD002
:1008F00001E0032908D001206268000482420AD185
:1009000029680143296015E0286880032ED56068B6
:100910000028DDD02AE0052301211B0489049A4226
:100920002A6802D10A432A60EAE782432A602868DB
:1009300088432860606800280CD0FFF74BFD06460E
:1009400004E0FFF747FD801B642871D82868800306
:10095000F7D50BE0FFF73EFD064604E0FFF73AFD52
:10096000801B6428F1D828688003F7D4207880079A
:1009700067D5A968E868394082070720920FC0024E
:10098000102902D0002913D001E0022A10D0E1681A
:100990000029296844D081432069014329602868DF
:1009A000FF21013108432860FFF714FD06462BE0C4
:1009B0002A68520502D5E268002A89D06A687F2336
:1009C0001B029A4363691B021A436A60002900E014
:1009D0008BE00ED129688143206901432960286892
:1009E00001218004400F8140AB48FFF7BBFBAB49BE
:1009F00008600320FFF710FD002876D121E0FFF703
:100A0000E9FC801B0228A0D828684005F7D5686853
:100A10007F2109028843616909020843686010E088
:100A2000FF20013081432960FFF7D4FC064605E032
:100A300098E0FFF7CFFC801B022886D82868400585
:100A4000F7D42078964E00072ED5A8688006400F70
:100A500003280AD0A0690028306A16D00121084373
:100A60003062FFF7B7FC07460BE0306A80071BD502
:100A7000A0690028A1D017E0FFF7ACFCC01B02283A
:100A800070D8306A8007F7D50EE040084000306229
:100A9000FFF7A0FC074604E0FFF79CFCC01B022800
:100AA00060D8306A8007F7D4207840076CD5A868F2
:100AB00000278006400F042818D0E86BC00008D437
:100AC000E96B012000070143E963E96B014001275D
:100AD000009174480168C90519D401688215114351
:100AE0000160FFF777FC00900DE083E0F06980077C
:100AF0004AD5A06800287DD046E0FFF76BFC00993E
:100B0000401A02282ED867480068C005F5D5A168AC
:100B1000012910D004200529F16911D049084900A4
:100B2000F161F1698143F161A068002816D0FFF7F7
:100B300051FC00900EE0F06901210843F061F3E7F9
:100B40000143F161F7E7FFF745FC0099411A564868
:100B500081426FD8F0698007F5D50EE0FFF73AFCC7
:100B6000009007E066E0FFF735FC0099411A4E4817
:100B700081425FD8F0698007F5D4002F04D0E96B7B
:100B8000012000078143E963E06900287FD0A9685C
:100B90008906490F022953D0012636060228286803
:100BA0000DD0B0432860E86880088000E860E868FD
:100BB0003E490840E860FFF70DFC04463CE0B043C6
:100BC0002860FFF707FC074604E0FFF703FCC01BA3
:100BD00002282FD828688001F7D4616A206AA26AA7
:100BE0000843E16A120211430843216B0843616B19
:100BF000084300E049E0E9682D4A11400843E860F5
:100C0000286830432860E868012109070843E86044
:100C1000FFF7E0FB044604E0FFF7DCFB001B0228C3
:100C200008D828688001F7D531E0FFF7D3FB001B17
:100C3000022801D90320F8BD28688001F5D426E0F8
:100C40000128F8D0E868226A8107890F91421CD1F7
:100C50007021626A0140914217D17F21A26A090284
:100C600001401202914210D11F214904E26A014061
:100C700091420AD107214906226B0140914204D1D9
:100C8000400F616B4007884201D00120F8BD002071
:100C9000F8BD0000001002400024F4001000002005
:100CA000401002400070004088130000FFFFFEEE7D
:100CB0008C80C111094910B5401E884201D901201C
:100CC00010BD074C60610321081F00F00DF90020E2
:100CD000A06107202061002010BD0000FFFFFF0081
:100CE00000E000E030B5014660310A7F012A18D0EB
:100CF00001220A77242302468032144613600368D7
:100D00001A681D686D086D001D6001235B079A431A
:100D10000023436600680260202020600B7718469D
:100D200030BD022030BDF8B5054604466035287F49
:100D300001281DD001202877242220468030074634
:100D4000026020680668026852085200026020684B
:100D5000826807235B069A430A438260204600F0BC
:100D600027F9206806602020386000202877F8BD29
:100D70000220F8BDF8B5054604466035287F0128F5
:100D80001CD00120287724222046803007460260AC
:100D90002068066802685208520002602068826873
:100DA000D200D2080A438260204600F001F9206890
:100DB00006602020386000202877F8BD0220F8BDAA
:100DC00070B5040006D02046803005460068002833
:100DD00002D007E0012070BD00217C200155204693
:100DE00000F026F82420286020680168490849009E
:100DF0000160204600F0A4F90128ECD0A06A002888
:100E000002D0204600F004F9206841680922D2028D
:100E100091434160206881682A2291438160206863
:100E20000168012211430160204600F057F970BDAE
:100E300010B586B0044614216846FFF7F2F912494E
:100E4000206888421ED111480268012189030A43A3
:100E500002600068084005900C484038426B04214D
:100E60000A434263406B0840059030200090022006
:100E700001210190002002910491039069460448E9
:100E8000FFF70EFA06B010BD0038014040100240D6
:100E900000080050FEE7000010B511480F4901603E
:100EA000E12149024160C90481600021C160016102
:100EB0008161C16101620C22416242618162FFF77E
:100EC0007FFF00210648FFF755FF00210448FFF788
:100ED0002AFF0348FFF706FF10BD0000003801405D
:100EE0006C000020704700008307FF22DB0E9A4051
:100EF0008907090E994000280BDA0007000F08380F
:100F0000830808489B001818C36993430B43C361C7
:100F10007047830804489B001B18186890430843D7
:100F20001860704700ED00E000E400E07047012029
:100F300000F0A0FCFBE710B5FFF752FA00F0A7FCA9
:100F400010BD10B5A0B038216846FFF76AF900243B
:100F50001B941C941D9434210EA81E94FFF761F974
:100F600001204002FFF79AFA02200090C00103908E
:100F700040200590049407946846FFF7A7FC0720DB
:100F80001B901C941D9400211E941BA8FFF79CFB32
:100F900001200E900F940EA8FFF7A6FA20B010BD06
:100FA00001200249C00688607047000000ED00E0A3
:100FB000F0B513A106C985B00192009112A206CA2C
:100FC000039202910446416E4034002915D0006816
:100FD0008168806809014D0F400F02AE315C6F4699
:100FE000385CC000FFF7BEF86085785D715DC000B9
:100FF000FFF7B8F8208505B0F0BD01206085F9E75E
:1010000001010103070100000804020408010101B5
:1010100010B5018DC90707D001684A6801235B0438
:101020009A43C36A1A434A60018D890707D501684C
:101030004A6801231B049A43036B1A434A60018DDB
:10104000490707D501684A6801239B049A43436B0B
:101050001A434A60018D090707D501684A680123D0
:10106000DB039A43836B1A434A60018DC90607D597
:101070000268916801231B039943C36B1943916074
:10108000018D890607D501688A6801235B039A43AD
:10109000036C1A438A60018D490612D503685A68A9
:1010A00001210905446C8A4322435A60426C8A42FA
:1010B00007D10268516803235B059943836C194388
:1010C0005160018D090607D501684A680123DB04D8
:1010D000C06C9A4302434A6010BD0000FEB505464D
:1010E000002680350446AE60FFF774F90190206851
:1010F0000068124F000709D5012100970022490519
:101100002046019B00F04AFB00280DD120680068B2
:1011100040070BD501210097002289052046019B3D
:1011200000F03CFB002801D00320FEBD20202860F9
:101130006860603426770020FEBD0000FFFFFF01DD
:10114000F8B50446036880682269E569104362695E
:1011500000262A431043626EF24902431868F24D9A
:101160002840104318602268506803231B039843EB
:10117000E368184350602268A0698A4201D0236A5C
:1011800018439368E94D2B40034393602068C26A7B
:10119000636A120912011A43C262E54B2068E54AEC
:1011A00098420AD152699207920F39D0012A3BD056
:1011B000022A37D0032A25D122E0DF4B98420AD1F8
:1011C00052690C231A402BD0042A2DD0082A29D08A
:1011D0000C2A17D114E0D94B984221D0D84B984211
:1011E0001ED088420ED1536903229202134017D0B9
:1011F000012292029B1A17D09B1A13D0934201D15D
:10120000082700E01027FF25013588426FD1002F05
:101210000CD0022F3BD0042F7CD0082F69D182E064
:101220000027F0E70227EEE70427ECE7FFF7F4FAE0
:1012300072E0022129E0022812D0032812D00428EB
:1012400012D0052812D0062812D0072812D008285C
:1012500012D0092812D00A2812D00B2814D111E07C
:10126000042112E0062110E008210EE00A210CE022
:101270000C210AE0102108E0202106E0402104E0D2
:10128000802102E0294600E0012110461AE0606A50
:10129000002815D0012824D0022824D0032824D0E7
:1012A000042827D0052827D0062827D0072827D0AC
:1012B000082827D0092827D00A2827D00B2827D08C
:1012C0000121A048FEF74EFF002860D06168009120
:1012D0004A008918814259D800990903814255D39F
:1012E00056E00221EDE70421EBE70621E9E738E1CA
:1012F00010E04BE00821E4E70A21E2E70C21E0E7F7
:101300001021DEE72021DCE74021DAE78021D8E761
:101310002946D6E7FFF794FA0246606A0028B3D060
:10132000012888D185E7606A002815D0012817D0E8
:10133000022817D0032817D0042817D0052817D063
:10134000062817D0072817D0082817D0092817D043
:101350000A2817D00B2817D001210120C003B1E7BC
:101360000221FAE70421F8E70621F6E70821F4E76D
:101370000A21F2E70C21F0E71021EEE72021ECE74B
:101380004021EAE78021E8E72946E6E70126DBE19C
:10139000002F31D0022F7BD0042F72D0082FF5D12F
:1013A000606A002815D001286CD002286BD0032871
:1013B0006AD0042869D0052868D0062867D0072895
:1013C0007ED008287DD009287CD00A287BD00B2825
:1013D00000D00125002701202A463B46C0030021FA
:1013E000FEF7D6FE020E09021143020200984008E1
:1013F00010187941009A39E0FFF70EFA82E0012ACD
:1014000015D0022A15D0032A15D0042A15D0052A92
:1014100015D0062A15D0072A15D0082A15D0092A72
:1014200015D00A2A15D00B2A14D0012512E0022566
:1014300010E004250EE006250CE008250AE00A2548
:1014400008E00C2506E0102504E0202502E04025F8
:1014500000E080252A460023FEF79AFE020E0902CC
:101460001143626803025008181879410023FEF7FF
:101470008FFE03210902421A33498A4270D985E757
:1014800006E03DE044E045E046E047E048E05DE05E
:10149000606A00281AD001281ED002281ED0032816
:1014A0001ED004281ED005281ED006281ED00728CE
:1014B0001ED008281ED009281ED00A281ED003E0FE
:1014C00046E047E048E049E00B2800D0012500272E
:1014D0002A463B461B4882E70225F8E70425F6E743
:1014E0000625F4E70825F2E70A25F0E70C25EEE7E4
:1014F0001025ECE72025EAE74025E8E78025E6E728
:10150000FFF79EF90027626A3946002A8DD076E7F8
:1015100002255FE704255DE706255BE7082559E717
:101520000A2557E700800040F369FFCFFFF4FF1161
:101530000038014040100240004400400048004094
:10154000004C00400024F400FFFC0F000C2541E794
:1015500010253FE720253DE740253BE7802539E77B
:10156000F0E00122E069D20390426ED1002F06D054
:10157000022F35D0042F7AD0082F80D17AE0FFF7E0
:101580004BF976E0012815D0022815D0032815D094
:10159000042815D0052815D0062815D0072815D001
:1015A000082815D0092815D00A2815D00B2814D0E2
:1015B000012512E0022510E004250EE006250CE0CE
:1015C00008250AE00A2508E00C2506E0102504E0BD
:1015D000202502E0402500E08025294610461BE03A
:1015E000606A002815D001282BD002282BD00328B0
:1015F0002DD004282DD005282DD006282DD0072841
:101600002DD008282DD009282DD00A282DD00B2820
:1016100000D0012529465F48FEF7A4FD616840001F
:101620004A088018FEF79EFD80B201465A4A1039DA
:10163000914200D9AAE6511C01400007400F08431F
:1016400080E00225E6E70425E4E717E00FE0062541
:10165000E0E70825DEE70A25DCE70C25DAE71025B8
:10166000D8E72025D6E74025D4E78025D2E7FFF745
:10167000E7F80246606A00289AD083E7002F06D078
:10168000022F35D0042F7ED0082FD3D17EE0FFF774
:10169000C3F87AE0012815D0022815D0032815D008
:1016A000042815D0052815D0062815D0072815D0F0
:1016B000082815D0092815D00A2815D00B2814D0D1
:1016C000012512E0022510E004250EE006250CE0BD
:1016D00008250AE00A2508E00C2506E0102504E0AC
:1016E000202502E0402500E08025294610461BE029
:1016F000606A002815D0012830D0022830D0032895
:1017000030D0042831D0052831D0062831D0072820
:1017100031D0082831D0092831D00A2831D00B28FF
:1017200000D0012529461B48FEF71CFD61684A08C8
:101730008018FEF717FD80B20146174A1039914212
:1017400000D923E62168C860204601214030418548
:1017500001850020E06620673046F8BD0225E1E7FC
:101760000425DFE70625DDE70DE00825DAE70A2591
:10177000D8E70C25D6E71025D4E72025D2E7402569
:10178000D0E78025CEE7FFF75BF80246606A0028C5
:1017900096D07FE70024F400EFFF0000FFB581B092
:1017A00017460E4604460A9D09E0681C07D0FEF75E
:1017B00011FE0499401AA8420CD8002D0AD02068C6
:1017C000C169304688431AD00020B842EDD00020CD
:1017D00005B0F0BD20680168FF22A132914301608D
:1017E00020688168490849008160202120468030B6
:1017F000016041600020603420770320E8E7012089
:10180000E3E702E008C8121F08C1002AFAD17047B6
:101810007047002001E001C1121F002AFBD1704770
:1018200086B0FEF7E5FDFFF78CFB0C48426B042108
:101830000A434263406B08400590FFF72DFB1422DA
:1018400007496846FEF7D4FC0021684600F027F8F7
:101850000449086000F016F8FEE70000001002409E
:10186000942000080000002001460020842900D0B8
:10187000C81C704710B5002800D1012000F072FA92
:10188000002010BD10B500F085FA002010BD10B585
:1018900000F03CFB012801D000F0FEFA10BD3EB57F
:1018A000044608200D46205EFFF7DEFF02A90191E5
:1018B0000090208A2B4682B22168606800F0FEFA10
:1018C000012801D000203EBD02983EBDF8B5134C62
:1018D0000F46666905462068001D00F0B5F9681CD2
:1018E00007D1002F05D021680D48091D00F0E5F94A
:1018F000F8BD2068751945602168B54204D2A0681A
:10190000091D00F0C2F9F8BD6068091D00F0BDF9BD
:10191000206B8542F7D22563F8BD0000140000203B
:10192000D4010020F8B5054600F0D4F9294C20690F
:10193000401C20612068284F002803D0E06900285F
:1019400027D02CE025602069012828D1002614200A
:101950007043C01900F08BF9761C072EF7D31E4890
:101960008C3000F084F91C48A03000F080F91A484F
:10197000B43000F07CF91848C83000F078F9164807
:10198000DC3000F074F914488C3060601430A060D2
:1019900005E02068E96AC06A884200D82560E06AEC
:1019A000401CE062E86AA169884200D9A061142164
:1019B0004843C019291D00F080F900F097F9E0694B
:1019C000002806D02068E96AC06A884201D200F087
:1019D000BDF9F8BD14000020F800002010B5044641
:1019E000006B00F091F9204600F08EF910BD000068
:1019F00003210E488902420705D0C01DC0080B4ACA
:101A0000C000821A891A0A4A0023411809C20839FB
:101A1000C908C900183A11604B600B600B1A0AC064
:101A200093600120C0075360D0607047E801002038
:101A3000600000200F4E104C3746C83F11E000F008
:101A400049F9F068C568281D00F0FEF82069401EBD
:101A50002061E068401EE06000F048F92846FFF78A
:101A6000BDFFE0680028EAD138680128F9D900F004
:101A70006DF9F6E7C001002014000020FFB581B029
:101A80000C9C9000236B001F1818C6080A9DF600D6
:101A9000700701D072B6FEE723180A5C20331A756E
:101AA0000A5C002A02D0401C1028F5D320464030A2
:101AB00000270090C770072D00D30625E562A764B4
:101AC000201D656400F0DEF82046183000F0DAF8DA
:101AD00024610720401B6462A061E76400980774DA
:101AE0003046049A019900F09FF820600B98002876
:101AF00000D0046005B0F0BD30B5114900E01146DA
:101B00000A688242FBD34B685C18844203D1406868
:101B100018184860084643681C18944209D1084CBC
:101B2000103C2468A24209D052689A1842600A68A0
:101B300012680260814200D0086030BD0460F9E79D
:101B400060000020064841680968002905D0416806
:101B5000C968C9684968016370470021C943FAE749
:101B60001400002003480068401C72B600D0FEE755
:101B7000FEE7000068000020F8B50546002700F0E9
:101B80002FF9284E3068002801D1FFF731FFF068A7
:101B900005423FD1002D3DD00835680708D06807C1
:101BA000400F0821081A4519680701D072B6FEE7F0
:101BB000002D2FD0706885422CD81A48103001466D
:101BC0000C6801E020460C466168A94202D22168F7
:101BD0000029F7D131688C421CD007682168016068
:101BE00060680837411B102908D96019420701D0E5
:101BF00072B6FEE741606560FFF77EFF616870685E
:101C0000401A7060B268904200D2B060F068014340
:101C1000002003C400F0E8F9780701D072B6FEE7AF
:101C20003846F8BD5000002010B50124031F2406DB
:101C30001C601B1F1960191F024B0B6014394038C0
:101C40000A6010BD651B00084368826801699A60DC
:101C5000836842685A604A68824201D182684A6059
:101C6000002202610868401E08600868704701464B
:101C7000083100224160D243C160826001610021CD
:101C80000160704700210161704730B50B685A1C34
:101C900002D00246083202E0026904E0224654689B
:101CA00025689D42FAD953684B6099608A605160FB
:101CB00008610168491C016030BD42684A60936850
:101CC0008B6093685960916008610168491C0160EC
:101CD0007047000072B604480168491C0160BFF3F8
:101CE0004F8FBFF36F8F7047680000200549086869
:101CF000002804D0401E086000D162B6704772B65A
:101D0000FEE700006800002070B500281AD00446E5
:101D10000D4D083C6068E968084201D172B6FEE7E3
:101D20002268002A01D072B6FEE78843606000F0A6
:101D300057F860686968401868602046FFF7DCFE65
:101D400000F052F970BD000050000020012004494D
:101D500000074860BFF34F8FBFF36F8F70470000DD
:101D600000ED00E010B502000FD00948806B00289C
:101D700001D072B6FEE700F033F800211046FFF7FD
:101D8000A5FD00F031F9002801D1FFF7DFFF10BDFC
:101D9000140000201CB50E48002401902346802228
:101DA0000CA100940D4800F089F8012803D0401CD4
:101DB0000CD172B6FEE772B600210548C94334382B
:101DC00001630121C161446100F03EF81CBD0000C7
:101DD0004800002049444C4500000000351A000826
:101DE0000248816B491C8163704700001400002089
:101DF00010B51348816B002902D00121416210BD4A
:101E00000021416281690F4A02E0002915D0491E74
:101E100014234B43D358002BF7D014234B439A1869
:101E2000536814465B6808345360A34201D15B6871
:101E30005360DA680260816110BD72B6FEE700008F
:101E400014000020F800002070B50F48016AFF223E
:101E5000120411430162016A1202114301620B4C28
:101E600000252561A5610A487D21C9000068FEF7AB
:101E700079F9401E60610720206106480560FEF781
:101E800027F9002070BD000000ED00E000E000E058
:101E9000100000206800002010B5FEF72DF9044660
:101EA00000F044F8002803D00120034900074860EF
:101EB0002046FEF725F910BD00ED00E0FFB585B026
:101EC000164690000F9FFFF757FE05001AD05420CA
:101ED000FFF752FE040012D0256300210E980391F3
:101EE0000197009002943246089B06990598FFF7E7
:101EF000C5FD2046FFF716FD012009B0F0BD2846BC
:101F0000FFF702FF0020C043F7E700000648C16961
:101F1000002904D0806B002803D0002070470120E6
:101F2000704702207047000014000020F8B52C4CC8
:101F30000027A06B002808D0206A401C2062606A3D
:101F4000002800D001273846F8BD6669761C666116
:101F50000ED160680068002801D072B6FEE76068A4
:101F6000A1686160A060A06A401CA062FFF7EAFD62
:101F7000206B86420AD360680068002810D0606831
:101F8000C068C568686886420DD220632068142145
:101F9000C06A4843134908580128D0D90127CEE721
:101FA0000020C043F1E7281DFFF74EFEA86A002875
:101FB00003D028461830FFF747FEE86AA169884237
:101FC00000D9A0611421484306494018291DFFF794
:101FD00074FEE86A2168C96A8842CCD30127CAE73F
:101FE00014000020F8000020F8B5284C0025A06B54
:101FF0002E46002808D0FFF76DFEA06B401EA063A0
:10200000A06B002802D03DE072B6FEE72169204FA8
:1020100000291DD136E0F868C56828461830FFF75A
:1020200013FE281DFFF710FEE86AA169884200D957
:10203000A061142148431649B4394018291DFFF7FF
:102040003CFEE86A2168C96A884201D301206062C7
:1020500038680028DFD1002D01D0FFF773FD256A15
:10206000002D09D00127FFF761FF002800D067622B
:102070006D1EF8D100202062606A002802D001267F
:10208000FFF764FEFFF732FE3046F8BD1400002073
:10209000AC010020082100082F0F000800000000FC
:1020A00000000000800000000000000000000000B0
:1020B0000000000000000000000000000000000020
:1020C000000000000000000001000000020000000D
:1020D00003000000040000000600000007000000EC
:1020E00008000000090000000000000000000000DF
:1020F00000000000000000000100000002000000DD
:10210000030000000400000064656661756C74548F
:1021100061736B0034210008000000206C00000097
:1021200002180008A02100086C0000207C110000AB
:102130001218000800000000040000000100000068
:10214000000000000024F400000000000000000077
:10215000000000000000000000000000000000007F
:10216000000000000000000000000000000000006F
:10217000000000000000000000000000000000005F
:10218000000000000000000000000000000000004F
:10219000000000000000000000000000AAAAAAAA97
:04000005080000BD32
:00000001FF
